:100000000C948B070C94BC070C94BC070C94BC0795
:100010000C94BC070C94BC070C94BC070C94BC0754
:100020000C94BC070C94BC070C94BC070C94BC0744
:100030000C94BC070C94BC070C94BC070C94BC0734
:100040000C94BC070C94EC160C94BC070C94BC07E5
:100050000C9437160C94BC070C94BC070C947414C5
:100060000C94BC070C94E4150C94BA150C94BC07C2
:100070000C94BC070C94BC070C94BC070C94BC07F4
:100080000C94BE160C94BC070C94BC070C941A1765
:100090000C9490150C9466150C94BC070C94BC073A
:1000A0000C94BC070C94BC070C9490160C94BC07E1
:1000B0000C94BC070C940E160C94BC070C9462169E
:1000C0000C94BC070C94BC070C94BC070C943C1516
:1000D0000C9412150C94BC070C94E8140C94BE14E8
:1000E0000C94BC070C94C10D0C9489080C94451712
:1000F0000C94DE0A0C94B7090C94BC0A0C946D089D
:100100000C94EF0E0C94BA0E0C943C080C94A209BB
:100110000C9471080C9419100C945D080C94AD0AA1
:100120000C949B090C9475080C94F10E0C94D40E4D
:100130000C94810B0C9463080C94EC0E0C94D00A74
:100140000C947B080C94C0090C9461120C94670AFF
:100150000C94BF070C94DC0D0C9440120C944E08C8
:100160000C947F080C94E00E0C94340B0C948813C0
:100170000C9437080C948D080C9456080C94A51315
:100180000C94BE070C94C60B0C9467080C94B00931
:100190000C9452080C9489130C945A080C94C209BC
:1001A0000C9483080C94BE09FFD0FFE0FFCFFF64DE
:1001B000FFD1FF32380C060201FF64FFD0FFFE3290
:1001C0002E506C6561736520696E7365727420745E
:1001D000686520534420636172642100312E506CA5
:1001E00065617365207265636865636B207468651B
:1001F00020636F6E6E656374696F6E2100556E616A
:10020000626C6520746F20626567696E3A00FFFF5B
:10021000FFFFFFFFFFFFFFFFFFFFFFF3FFFFFFFFFA
:10022000FFFFFFFFFFFFFFFFFFFFFFF5FFFFFFFFE8
:10023000FFFFFFFFFFFFFFFFFFFF7FEEFFFFFFFF5F
:10024000FFFFFFFFFFFFFFFFFFFF3FE9FFFFFFFF94
:10025000FFFFFFFFFFFFFFFFFFFFFFC1FFFF1F21AA
:100260006D1C63E1FFFFFFFFFFFF5FD0FFFF9F00FB
:100270002C0411F0FFFFFFFFFFFF3FD0FFFF1F0423
:100280008C0F11E1FFFFFFFFFFFF2FF0FFFF1F208B
:100290002C1C81E1FFFFFFFFFF3F00F0FFFF9F21CC
:1002A0006C8C84F0FFFFFFFFFFCF1FB0FFFFFFFF4D
:1002B000FFFFFFFFFFFFFFFFFFFB1FA0FFFFFFFF91
:1002C000FFFFFFFFFFFFFFFFFFFC1FA0FFFFFFFF80
:1002D000FFFFFFFFFFFFFF6F3CFF7F20FFFFFFFFE0
:1002E000FFFFFFFFFFFFFFDF87FFFFF3FCFFFFFFC5
:1002F000FFFFFFFFFFFFFF2FFFFFFFFFF3FFFFFFEA
:10030000FFFFFFFFFFFFFF4FF8FFFFFF9CFFFFFF17
:10031000FFFFFFFFFFFFFF5FF8FFFF7F3CFFFFFFD7
:10032000FFFFFFFFFFFFFF3FF8FF0F3EF8FEFFFF5D
:10033000FFFFFFFFFFFFFF3FF8FF033CF8FDFFFF5C
:10034000FFFFFFFFFFFFFFFFF8FF0338F8FDFFFF90
:10035000FFFFFFFFFFFFFF7FF8FF0038F0FBFFFF0D
:10036000FFFFFFFFFFFFFFFFFDFF0038F0F7FFFF7C
:10037000FFFFFFFFFFFFFFFFFF7F0038E0F7FFFFFA
:10038000FFFFFFFFFFFFFFFFFE7F001880EFFFFF73
:10039000FFFFFFFFFFFFFFFFFE7F000800EFFFFFF3
:1003A000FFFFFFFFFFFFFFFFE67F180800DEFFFFF4
:1003B000FFFFFFFFFFFFFFFFC47F180800BCFFFF28
:1003C000FFFFFFFFFFFFFFFFC57F380800BCFFFFF7
:1003D000FFFFFFFFFFFFFFFF057F380800F8FFFF6B
:1003E000FFFFFFFFFFFFFFFF053F281C00F8FFFF97
:1003F000FFFFFFFFFFFFFFFF0B1F103800F0FFFFA5
:10040000FFFFFFFFFFFFFFFF1B0F003800F0FFFFA4
:10041000FFFFFFFFFFFFFFFF370E00300070FFFF01
:10042000FFFFFFFFFFFFFFFF370000300060FFFF0F
:10043000FFFFFFFFFFFFFFFF670000780060FFFF87
:10044000FFFFFFFFFFFFFFFF0F0000780060FFFFCF
:10045000FFFFFFFFFFFFFFFF1F00007800E0FFFF2F
:10046000FFFFFFFFFFFFFFFF1F00003E00F0FFFF49
:10047000FFFFFFFFFFFFFFFFFF00003E00F0FFFF59
:10048000FFFFFFFFFFFFFFFFBF03C03F00E0FFFFD5
:10049000FFFFFFFFFFFFFFFF3F07EC3F00C0FFFF35
:1004A000FFFFFFFFFFFFFFFF7F3FF03F00B0FFFFB9
:1004B000FFFFFFFFFFFFFFFF7F1FE03F00FCFFFF8D
:1004C000FFFFFFFFFFFFFFFFFF0FE03F00FCFFFF0D
:1004D000FFFFFFFFFFFFFFFFFF04C07100FCFFFFF6
:1004E000FFFFFFFFFFFFFFFFFF01C0C100FEFFFF97
:1004F000FFFFFFFFFFFFFFFFFF00C08300FEFFFFC6
:10050000FFFFFFFFFFFFFFFFFF00C00F80FFFFFFA8
:10051000FFFFFFFFFFFFFFFFFF00C00FF0FFFFFF28
:10052000FFFFFFFFFFFFFFFF7F00E01FF8FBFFFF64
:10053000FFFFFFFFFFFFFFFF3F00E07FF0FBFFFF3C
:10054000FFFFFFFFFFFFFFFF3F00E0FFE7FBFFFFB5
:10055000FFFFFFFFFFFFFFFF1F00E0FFDFFFFFFFC9
:10056000FFFFFFFFFFFFFFFF0F0070FEDFFDFFFF3C
:10057000FFFFFFFFFFFFFFFF0708DCF53FFDFFFF69
:10058000FFFFFFFFFFFFFFFF070ADEF1FFFD000097
:100590000000000000000000000000000000FFFF5D
:1005A000FFFFFFFFFFFFFFFFFFFFFFFFFFFFFFFF5B
:1005B000FFFFFFFFFFFFFFFFFFFFFFFFFFFFFFFF4B
:1005C000FFFFFFFFFFFFFFFFFFFFFFFFFFFFFFFF3B
:1005D000FFFFFFFFFFFFFFFFFFFFFFFFFFFFFFFF2B
:1005E000FFFFFFFFFFFFFFFFFFFFFFFFFFFFFFFF1B
:1005F000FFFFFFFFFFFFFFFFFFFFFFFFFFFFFFFF0B
:10060000FFFFFFFFFFFFFFFFFFFFFFFFFFFF0000F8
:1006100000000000000000000000000000000000DA
:1006200000000000000000000000000000000000CA
:1006300000000000000000000000000000000000BA
:1006400000000000000000000000000000000000AA
:10065000000000000000000000000000000000009A
:10066000000000000000000000000000000000008A
:10067000000000000000000000000000000000007A
:10068000000000000000000000000000000000006A
:1006900000000000000000000080030000000000D7
:1006A000000000000000000000C003000000000087
:1006B000000000000000000000F003000000000047
:1006C0000040000000000000C0FF03000000000028
:1006D000C0FF7F0E00000000FEFE010000000000D1
:1006E000C0FFFF38000000001FFF000000000000F6
:1006F00080F8FFF1010000C0E3FF000000000000EF
:1007000080F1FFEF530000E0F18F000000000000D7
:100710008003FFBFFFFFFF3FFF410000000000001C
:1007200000077CF6FBFFFF3FFF43000000000000D6
:1007300000C7F9F0FCFFFF27FE6300000000000087
:1007400000DEFF01FFFFFF3FFF310000000000005F
:10075000003C7C87FFFFFFBFFF300000000000006F
:100760000038F080FFFFFFBF3F10000000000000D6
:100770000078E0C3FFFFFFBF071800000000000083
:1007800000C003E0FFFFCFBF010C0000000000002D
:10079000000007F0FFFFC7B1000E000000000000DE
:1007A00000000E7EF6FFE3300007000000000000AE
:1007B0000000F037487E700CF001000000000000DF
:1007C0000000E071DC1C708CE10000000000000003
:1007D0000000C0788C317090010000000000000023
:1007E0000000007C001170BE00000000000000004E
:1007F000000000FF210080900600000000000000C3
:10080000000000FF33000080060000000000000030
:10081000000080FF0F0030800F000000000000008B
:10082000000080FF070070800F0000000000000043
:100830000000C07F00F00F801F00000000000000DB
:100840000000E03F007840003F0000000000000092
:100850000000E03F203880003F0000000000000062
:100860000000E01F301E00000F000000000000002C
:100870000000E01F308F60000F000000000000004B
:100880000000E03FE0C760042E0000000000000010
:100890000000F01FE0E7C0006E0000000000000054
:1008A0000000F8FFF00F0004DE0000000000000070
:1008B0000000F8FFF11F1F06DE030000000000002B
:1008C0000000F8FFFFFFFF039E070000000000008C
:1008D0000000F8FFFFFFFF01BE0F00000000000056
:1008E0000000F8FDFFFF7F023E0F00000000000047
:1008F0000000F8FBFF9F1F337F1F00000000000077
:100900000000F8F3FF1F843B7F3F00000000000061
:100910000000F8EFFFFFFFC77F3F0000000000006E
:100920000000F88FFFFFFFE07F3F000000000000A5
:100930000000F83FFFFF3FE07F7F00000000000065
:100940000000F87FE0FF0F877F7F000000000000BD
:100950000000FCFF1300F0C17FFF0000000000005A
:100960000000FCFFFF01FCE07BFF00000000000036
:100970000000FCFFFFFF7FFF1FFF000000000000E2
:100980000000FCFFFFFFBFFF8FFF00000000000022
:100990000000F0FFFFFF9FFFCF7F0000000000007E
:1009A0000000E0CFFFFF8FFFE77F000000000000A6
:1009B0000000E00FF8FF8FFFF33F00000000000091
:1009C00000000007007280FFFD0F00000000000023
:1009D00000000000000080FF810000000000000017
:1009E0000000000000008006000000000000000081
:1009F00000000000000000000000000000000000F7
:100A00000000000000000000000000000000FFFFE8
:100A1000FFFFFFFFFFFFFFFFFFFFFFFFFFFFFFFFE6
:100A2000FFFFFFFFFFFFFFFFFFFFFFFFFFFFFFFFD6
:100A3000FFFFFFFFFFFFFFFFFFFFFFFFFFFFFFFFC6
:100A4000FFFFFFFFFFFFFFFFFFFFFFFFFFFFFFFFB6
:100A5000FFFFFFFFFFFFFFFFFFFFFFFFFFFFFFFFA6
:100A6000FFFFFFFFFFFFFFFFFFFFFFFFFFFFFFFF96
:100A7000FFFFFFFFFFFFFFFFFFFFFFFFFFFFFFFF86
:100A8000FFFFFFFFFFFFFFFFFFFFFFFFFFFFFFFF76
:100A9000FFFFFFFFFFFFFFFFFFFFFFFFFFFFFFFF66
:100AA000FFFFFFFF7F00F8FFFFFFFFFFFFFFFFFFDC
:100AB000FFFFFFFF1F0000FEFFFFFFFFFFFFFFFF25
:100AC000FFFFFFFF0F0000FCFFFFFFFFFFFFFFFF27
:100AD000FFFFFFFF070000F8FFFFFFFFFFFFFFFF23
:100AE000FFFFFFFF070000F0FFFFFFFFFFFFFFFF1B
:100AF000FFFFFFFF070000F0FFFFFFFFFFFFFFFF0B
:100B0000FFFFFFFF070000F0FFFFFFFFFFFFFFFFFA
:100B1000FFFFFFFF070000F0FFFFFFFFFFFFFFFFEA
:100B2000FFFFFFFF070000F0FFFFFFFFFFFFFFFFDA
:100B3000FFFFFFFF070000F0FFFFFFFFFFFFFFFFCA
:100B4000FFFFFFFF070000F0FFFFFFFFFFFFFFFFBA
:100B5000FFFFFF7FA63FFEF7FFFFFFFFFFFFFFFF47
:100B6000FFFFFFFF143C1ED6FFFFFFFFFFFFFFFF4D
:100B7000FFFFFFFFC03FFED7FFFFFFFFFFFFFFFFAD
:100B8000FFFFFFFF63181CF3FFFFFFFFFFFFFFFFE7
:100B9000FFFFFFFF010000F0FFFFFFFFFFFFFFFF70
:100BA000FFFFFFFF010000F0FFFFFFFFFFFFFFFF60
:100BB000FFFFFFFF050000E0FFFFFFFFFFFFFFFF5C
:100BC000FFFFFFFF050000E0FFFFFFFFFFFFFFFF4C
:100BD000FFFFFFFF050000E8FFFFFFFFFFFFFFFF34
:100BE000FFFFFFFF070000E8FFFFFFFFFFFFFFFF22
:100BF000FFFFFFFF073007E8FFFFFFFFFFFFFFFFDB
:100C0000FFFFFFFF0FE003FCFFFFFFFFFFFFFFFF02
:100C1000FFFFFFFF0FE003FCFFFFFFFFFFFFFFFFF2
:100C2000FFFFFF47177007F4FBFFFFFFFFFFFFFF0A
:100C3000FFFFFF831138240EF6FFFFFFFFFFFFFFCA
:100C4000FFFF7F10BCE77BC6C1FFFFFFFFFFFFFF79
:100C5000FFFFC3E071D7F20F28F4FFFFFFFFFFFF94
:100C6000FFFF0128F801E05780F8FFFFFFFFFFFFBB
:100C7000FFFF8504F1C3F10704E5FFFFFFFFFFFF5E
:100C8000FFFF5160F803F01F0200FFFFFFFFFFFFAF
:100C9000FF7F0408F80FF8BF4140FEFFFFFFFFFF92
:100CA000FF3F0000F90FFC3F0300FCFFFFFFFFFFC9
:100CB000FF3F14D0FEFFFFFF2700F8FFFFFFFFFFFD
:100CC000FF1F04E2FEFFFFFF8E00F8FFFFFFFFFFA4
:100CD000FF4F8843FEFFFBFF9B0FF4FFFFFFFFFF6B
:100CE000FF0FC0C3FFEFFDFFBF1FF0FFFFFFFFFFC0
:100CF000FF0FC0C1FFCFFF3F7F3FF1FFFFFFFFFFAF
:100D0000FF0F40C2FFFBFF1FFE7FF0FFFFFFFFFF53
:100D1000FF0FC6C0FFFFFFBFFF7FF0FFFFFFFFFF1A
:100D2000FF0FFECFF7FFFDFFFFFFF0FFFFFFFFFF0D
:100D3000FF0FFFE3FFBFFFFFFFFFF0FFFFFFFFFF1E
:100D4000FF0FFDD3FFFFFFFFFFFFF0FFFFFFFFFFE0
:100D5000FF4FFEC9FBFFFFFFFFFFF1FFFFFFFFFF9C
:100D6000FF8FFFC1FFFFFFFFFFFFF0FFFFFFFFFF50
:100D7000FF8FFBE5FBFFFFFFFF7FF0FFFFFFFFFFA4
:100D8000FFCFFF7DFC7FFFFFFF7FF0FFFFFFFFFF37
:100D9000FFCFFF3FFCFFFFFFFFFFF4FFFFFFFFFF61
:100DA000FFCFFF3FFDFFFFFFFFFFF1FFFFFFFFFF53
:100DB000FFEFFF1F7EC0F1FFFFFFF1FFFFFFFFFF0F
:100DC000FFCFFFDF3F00F8FFFFFFF2FFFFFFFFFF56
:100DD000FF0F68F8FF0FE0FF3F78F0FFFFFFFFFF16
:100DE000FF1F00100F00C0FF877FF0FFFFFFFFFF16
:100DF000FF0F021000008005C001F0FFFFFFFFFFA2
:100E0000FF0F000C000000380C44F8FFFFFF00004B
:100E10000A0B02090C0D0E08070304010000000074
:100E200000000000000000000000000000000000C2
:100E3000000000000000000000001211100000007F
:100E400000000000000000000000000000000000A2
:100E50000000000000002200250028002B002E00CA
:100E60003100340002010000050108010B010000FF
:100E70002100240027002A002D003000330001014A
:100E80000000040107010A0105050505070508081A
:100E90000808020202020A0A080804040404010104
:100EA0000101010101010303030303030303040719
:100EB00007070C0C0C0C0C0C0C0C020202020606B0
:100EC0000606060606060B0B0B0B0B0B0B0B0102A3
:100ED000102020080810204010204080020102014C
:100EE0000804020101020408102040808040201004
:100EF000080402018004020180402010080402015D
:100F000008040201010204081020408001020408C4
:100F100010204080451711241FBECFEFD1E2DEBF65
:100F2000CDBF00E00CBF12E0A0E0B2E0ECEFF8E3D0
:100F300000E00BBF02C007900D92AA38B107D9F7A5
:100F400028E0AAE8B2E001C01D92A532B207E1F79D
:100F500017E0CBE8D7E000E006C021970109802F19
:100F6000FE010E94741CCA38D10780E00807A9F767
:100F70000E940E190C947C1C0C940000089580E0D3
:100F80000895FC01A089B18982E08C93A485B58580
:100F90001C92A685B7858FEC8C93108EA489B58999
:100FA00086E08C93A289B3898C9180618C93A2890D
:100FB000B3898C9188608C93A289B3898C91806865
:100FC0008C930288F389E02D80818F7D8083089542
:100FD00090E0FC01E253F14F24918857914FFC01BE
:100FE0008491882399F090E0880F991FFC01E259C1
:100FF000F14FA591B491FC01EC5AF14F8591949178
:101000008FB7F894EC91E22BEC938FBF0895282FC3
:1010100030E0F901E25FF14F9491F901E253F14FB1
:1010200044912857314FF9012491222309F435C006
:10103000992311F191509231F8F4E92FF0E08827CB
:10104000EB5DF74F8F4F0C94741C56085A08370805
:101050004E0852083C085D08630867086D0871086F
:1010600075087B087F083C08830889088D088091F3
:1010700080008F7780938000E22FF0E0EE0FFF1F5B
:10108000EC5AF14FA591B4918FB7F894EC9161119E
:1010900048C040954E234C938FBF089580918000A7
:1010A0008F7DE8CF80918000877FE4CF84B58F77F4
:1010B00084BDE2CF84B58F7DFBCF8091B0008F7768
:1010C0008093B000D9CF8091B0008F7DF9CF80910F
:1010D00090008F7780939000CFCF809190008F7D8C
:1010E000F9CF80919000877FF5CF8091A0008F7716
:1010F0008093A000C1CF8091A0008F7DF9CF809117
:10110000A000877FF5CF809120018F778093200109
:10111000B3CF809120018F7DF9CF80912001877F0F
:10112000F5CF4E2BB8CF3FB7F8948091AE04909195
:10113000AF04A091B004B091B10426B5A89B05C03E
:101140002F3F19F00196A11DB11D3FBFBA2FA92F46
:10115000982F8827BC01CD01620F711D811D911D43
:1011600042E0660F771F881F991F4A95D1F70895AF
:101170008F929F92AF92BF92CF92DF92EF92FF92A7
:101180006B017C010E9493084B015C01C114D104E6
:10119000E104F104B9F00E949308681979098A09F9
:1011A0009B09683E73408105910580F321E0C21AD6
:1011B000D108E108F10888EE880E83E0981EA11C92
:1011C000B11CE4CFFF90EF90DF90CF90BF90AF9035
:1011D0009F908F9008958091BB079091BC07DC0190
:1011E000ED91FC910084F185E02D1995892B09F48E
:1011F000D3C060E070E0CB010E94B8082091D9070D
:101200008091BB079091BC07DC01ED91FC910284B9
:10121000F385E02D21110BC019958093C5078E37FA
:10122000D1F68091D9078F5F8093D907D4CF1995D4
:101230009091D907E92FF0E0E554F84F828792307A
:10124000A9F09930C9F0913099F48F3F89F010924C
:10125000D90781E08093DB071092DE071092DD074B
:101260008093DF071092E00780E00895863079F7D9
:101270009F5F9093D907AFCF8F3E49F78091C70703
:101280009091C607890F9927991FE091C8079C0183
:101290002E0F311D8091C907820F932F911D409110
:1012A000CA0750E0840F951F2091CB0730E0609172
:1012B000CC0770E0762F6627F091CD076F0F711D78
:1012C000820F931F9195819591096817790709F00D
:1012D000BECF1092D907E13419F41092E0073DC057
:1012E000E093DC07542F4427240F351F3093DE078B
:1012F0002093DD07EA53E63108F044C0F0E0882788
:10130000EB57F64F8F4F0C94741CB009B709C00906
:101310009B09C009A209BE09C209C009C009C009C8
:10132000C009C009C009C009C009C209C009C00973
:10133000C009C009C00985E08093DB0781E0809384
:10134000DF070BC089E020FDF7CF84E021FDF4CF5B
:10135000237033278AE0232B79F78091DF070895E4
:1013600087E020FDE9CF82E021FDE6CFF6CF88E0DF
:1013700020FDE2CF83E021FDDFCFEFCF86E0DCCFA1
:101380008BE0DACF81E08093DB071092DE071092CA
:10139000DD078093DF07A1CF8091E0078823E9F282
:1013A0002FB7F8948091B2049091B304A091B40443
:1013B000B091B5042FBF4091BD075091BE07609119
:1013C000BF077091C007841B950BA60BB70B40910C
:1013D000C1075091C2076091C3077091C407841779
:1013E0009507A607B70708F4B8CF1092D90710924F
:1013F000DB071092DE071092DD0781E031CF80938A
:10140000D207272F30E07093D4076093D50740911F
:10141000D1079091D007490F5527551F840F952F5D
:10142000911D4091D307840F911D820F931F680F68
:10143000792F711D7195619571097093D60760932D
:10144000D707442361F08091E007882341F060E0F2
:1014500070E0CB010E94B8080E94EB08F4CF8091A5
:10146000BB079091BC07DC01ED91FC910280F381F8
:10147000E02D4AE050E06FEC77E019952FB7F89433
:101480008091B2049091B304A091B404B091B504DA
:101490002FBF8093BD079093BE07A093BF07B09363
:1014A000C0078091D30791E0811101C090E0909333
:1014B000E007811106C06AE070E080E090E00C94E3
:1014C000B8080895682F70E086E00C94FF09AF9289
:1014D000BF92CF92DF92EF92FF920F931F93CF9321
:1014E000DF936C017B018B01040F151FEB015E0183
:1014F000AE18BF08C017D10759F06991D601ED9118
:10150000FC910190F081E02DC6011995892B79F7A6
:10151000C501DF91CF911F910F91FF90EF90DF9068
:10152000CF90BF90AF900895FC01A089B1898C91B4
:10153000A689B78982FD0FC09C91818D8F5F8F73C3
:10154000228D821749F0A18DAE0FBF2FB11D5D9680
:101550009C93818F08958C910895FC01538D448D47
:10156000252F30E0842F90E0821B930B541710F04E
:10157000CF96089501970895FC01918D828D98175B
:1015800061F0A28DAE0FBF2FB11D5D968C91928D33
:101590009F5F9F73928F90E008958FEF9FEF089564
:1015A000FC01918D828D981731F0828DE80FF11D2D
:1015B000858D90E008958FEF9FEF0895FC01918D48
:1015C000228D892F90E0805C9F4F821B91098F7341
:1015D0009927089586EB94E00E94DE0A21E0892B8A
:1015E00009F420E0822F089583E595E00E94DE0A49
:1015F00021E0892B09F420E0822F089580EF95E007
:101600000E94DE0A21E0892B09F420E0822F089550
:101610008DE896E00E94DE0A21E0892B09F420E0A3
:10162000822F0895FC01A48DA80FB92FB11DA35AD4
:10163000BF4F2C91848D90E001968F739927848FF2
:10164000A689B7892C93A089B1898C918370806415
:101650008C93938D848D981306C00288F389E02DB6
:1016600080818F7D80830895EF92FF920F931F9367
:10167000CF93DF93EC0181E0888F9B8D8C8D981345
:101680001AC0E889F989808185FF15C09FB7F89451
:10169000EE89FF896083E889F9898081837080649D
:1016A00080839FBF81E090E0DF91CF911F910F91E8
:1016B000FF90EF900895F62E0B8D10E00F5F1F4FF7
:1016C0000F731127E02E8C8D8E110CC00FB607FC06
:1016D000FACFE889F989808185FFF5CFCE010E9494
:1016E000120BF1CFEB8DEC0FFD2FF11DE35AFF4FE5
:1016F000F0829FB7F8940B8FEA89FB898081806222
:10170000CFCFCF93DF93EC01888D8823B9F0AA89DE
:10171000BB89E889F9898C9185FD03C0808186FDAC
:101720000DC00FB607FCF7CF8C9185FFF2CF8081FB
:1017300085FFEDCFCE010E94120BE9CFDF91CF9153
:10174000089580E090E0892B29F00E94080B811118
:101750000E94000080E090E0892B29F00E94FE0AA0
:1017600081110E94000080E090E0892B29F00E9406
:10177000F40A81110E94000080E090E0892B29F09A
:101780000E94EA0A81110C940000089508958F9236
:101790009F92AF92BF92FF920F931F93CF93DF93CD
:1017A000FC01F0808FE28F1508F44AC0828108E5C1
:1017B00012E0081B110987FD1395000F111F000F80
:1017C000111F8181C8E8D0E0C81BD10987FDD395DE
:1017D000CC0FDD1FCC0FDD1F4E010D2E000CAA0813
:1017E000BB089801012E000C440B550B2819390930
:1017F0004A095B09DB010E942F1C24EB30E040E02A
:1018000050E00E94051C820E931EA41EB51E8C166D
:101810009D062CF0E801801691060CF4E401229755
:10182000CC0FDD1F2FB7F8948F2D90E0FC01EE0F49
:10183000FF1FE80FF91FE65DF84FD283C1832FBF6A
:10184000DF91CF911F910F91FF90BF90AF909F902C
:101850008F9008958130910581F41092800082E08C
:10186000809381001092850010928400B19A80913B
:101870006F00826080936F0008958230910569F453
:101880001092900082E08093910010929500109247
:10189000940088BB8093710008958330910569F4AA
:1018A0001092A00082E08093A1001092A5001092F7
:1018B000A40089BB809372000895892B61F4109273
:1018C000200182E0809321011092250110922401D1
:1018D0008ABB809373000895AF92BF92CF92DF923C
:1018E000EF92FF920F931F93CF93DF936B017A01D7
:1018F000EC01CD55DB4F28813CE0389F8001399FBA
:10190000100D1124A090BA07B12C27FF1FC0FB01B6
:101910001182108288818F5F888388819801280FC7
:10192000311D87FD3A95F6012A153B051CF4888187
:101930008C30C4F180819181049680349C4908F4F4
:1019400073C0F60180819181049670C088819801EE
:10195000280F311D87FD3A952A153B05DCF6888155
:10196000A801480F511D87FD5A95FA01EE0FFF1F80
:10197000E40FF51FE65DF84F808186FFCBCF8881AD
:10198000F801E80FF11D87FDFA95CF01EE0FFF1F5B
:10199000E80FF91FE65DF84F808160E08F730E94C9
:1019A0000708B8CF808191812881A801420F511D7D
:1019B00027FD5A959A01FA01EE0FFF1FE20FF31F60
:1019C000E65DF84F21813281820F931FF7019183E9
:1019D000808388819801280F311D87FD3A95F90190
:1019E000EE0FFF1FE20FF31FE65DF84F808186FFC9
:1019F00022C08881080F111D87FD1A95F801EE0F8E
:101A0000FF1FE00FF11FE65DF84F808161E08F73EB
:101A1000DF91CF911F910F91FF90EF90DF90CF90CA
:101A2000BF90AF900C94070880E49CE9F701918384
:101A300080838FEF8883DF91CF911F910F91FF906B
:101A4000EF90DF90CF90BF90AF900895860F911DDB
:101A5000FC0183A18F3F19F0642F0C9407080895AF
:101A6000FC0180819281980F92832181921760F40A
:101A700094819F5F94839381890F821710F08FEF79
:101A8000820F838381E0089580E00895FC01128233
:101A9000808181508383148208952EE93FE000976E
:101AA00009F40895F9013197F1F70197F8CF90E023
:101AB000FC01EE0FFF1FED56FB4F0190F081E02D72
:101AC00085579B4FDC018C919081662319F0892BFF
:101AD0008083089580958923FBCF0F931F93CF9325
:101AE0008C01C62F8FB780938A04F894617080E0D0
:101AF0000E94570DC1FB662760F981E00E94570DD7
:101B0000C2FB662760F982E00E94570DC3FB66277F
:101B100060F983E00E94570DC4FB662760F984E0FA
:101B20000E94570DC5FB662760F985E00E94570D9E
:101B3000C6FB662760F986E00E94570D6C2F661F72
:101B40006627661F87E00E94570D80918A048FBF29
:101B500041E064E0C8010E94260D84E090E0019716
:101B6000F1F740E064E0C8010E94260D88E290E0B1
:101B7000FC013197F1F70197F1F7CF911F910F9188
:101B80000895EF92FF921F93CF93DF93EC01142FF0
:101B900079016150673008F0E6C0E62FF0E0882751
:101BA000EB52F24F8F4F0C94741CDC0DEF0EBA0EFB
:101BB000F10ED40EE00EEC0E88A590E0FC01E85783
:101BC000F14FE491F0E0EE0FFF1FEC5AF14F259139
:101BD00034913093940420939304FC01E253F14F29
:101BE000E491E0938B0489A590E0FC01E857F14F64
:101BF000E491F0E0EE0FFF1FEC5AF14F2591349184
:101C00003093960420939504FC01E253F14FE49144
:101C1000E0938C048AA590E0FC01E857F14FE49131
:101C2000F0E0EE0FFF1FEC5AF14F25913491309305
:101C3000980420939704FC01E253F14FE491E09360
:101C40008D048BA590E0FC01E857F14FE491F0E0A2
:101C5000EE0FFF1FEC5AF14F2591349130939A0407
:101C600020939904FC01E253F14FE491E0938E0438
:101C70008CA590E0FC01E857F14FE491F0E0EE0F05
:101C8000FF1FEC5AF14F2591349130939C0420931F
:101C90009B04FC01E253F14FE491E0938F048DA586
:101CA00090E0FC01E857F14FE491F0E0EE0FFF1FE8
:101CB000EC5AF14F2591349130939E0420939D046A
:101CC000FC01E253F14FE491E09390048EA590E083
:101CD000FC01E857F14FE491F0E0EE0FFF1FEC5AE2
:101CE000F14F259134913093A00420939F04FC017F
:101CF000E253F14FE491E09391048FA590E0FC0151
:101D0000E857F14FE491F0E0EE0FFF1FEC5AF14F6E
:101D1000259134913093A2042093A104FC01E25355
:101D2000F14FE491E093920488A98F3F39F00E942B
:101D3000E80740E06DE0CE010E94260D7E0183E2BF
:101D4000E80EF11CE096F70181917F018F3F41F091
:101D50000E94E80761E0F701319780810E9407083F
:101D6000CE15DF0581F781E0DF91CF911F91FF90C4
:101D7000EF90089541E0112319F0113059F440E03B
:101D800062E0CE010E94260D41E063E0CE010E9498
:101D9000260DE9CF41E0123009F040E062E0CE01CB
:101DA0000E94260D40E0F1CF642FCE010E946D0D00
:101DB000DACFF70161917F01CE010E946D0D1150C4
:101DC0001111F7CFD0CFF7016491CE010E946D0DB4
:101DD000FFEFEF1AFF0A11501111F5CFC4CF61E0E8
:101DE000D5CF8BA18F3F09F4BECF60E0CFCFDB0111
:101DF0001496ED91FC9130E020E065E01994DB0150
:101E00001496ED91FC9130E020E062E01994DB0142
:101E10001496ED91FC9130E020E063E019940F936B
:101E20001F93CF93DF93FC01A681B781C581D0E0DA
:101E300033E0D695C7953A95E1F7362F3770E0E84D
:101E4000F0E08F0102C0159507953A95E2F7FC0185
:101E50008281481B4C9FC0014D9F900D11246695B7
:101E600066956695680F792F711DA60FB71F8C9127
:101E7000E02F222339F0E82BEC93DF91CF911F91D3
:101E80000F910895E095E823F7CFFB014181DC0134
:101E900012962C911297421768F013962C91139773
:101EA000241740F0608115962C91621718F4248154
:101EB0000C940F0F0895DB01ED91FC9119940F9391
:101EC0001F93CF93DF931F92CDB7DEB70091E70743
:101ED0001091E807E0911608F091170882E0199533
:101EE00030E020E04AE0B80185EE97E00E945B0F09
:101EF000182FE0911608F091170883E01995E091EA
:101F00001608F091170880E019951123B9F1609136
:101F1000E7077091E8079E012F5F3F4F46E485EE8B
:101F200097E00E945B0F89818093E5076091E70746
:101F30007091E8079E012F5F3F4F47E485EE97E0E1
:101F40000E945B0F89818093E6076091E70770919B
:101F5000E80730E020E048E485EE97E00E945B0F60
:101F60008093F0076091E7077091E80728E138E077
:101F700047E185EE97E00E945B0F11E0812F0F9003
:101F8000DF91CF911F910F9108951F93CF93DF930E
:101F9000C0E01FEFD0E06091E7077091E807D093B1
:101FA0000108C0930208109204081093030821E06E
:101FB00038E04BE385EE97E00E945B0FD85FD038A6
:101FC00051F7CF5FC03431F7DF91CF911F91089562
:101FD00080911908803428F48091180887FF0C94A8
:101FE000C50F08950B96FC01849108950A96FC0193
:101FF00084910895FC01849108950E94FA0F88232A
:1020000021F0823011F083E0089586E00895FC010C
:10201000E60FF11D849190E0982F88273196E49186
:102020008E0F911D089568E00C94071066E00C94E3
:1020300007109F92AF92BF92CF92DF92EF92FF92E2
:102040000F931F93CF93DF937C018B01942E690133
:102050002AE0421751F185E1481709F488C0F801D8
:10206000C281D381F2E39F1609F42BC1F91508F45C
:10207000CDC025E1921609F429C187E1981609F42B
:1020800038C194E19912F1C0EE81FF818D8124E085
:10209000829FC00111248E0F9F1F11928E179F07E0
:1020A000E1F7CE010E94460DE0C0DB011496ED91F0
:1020B000FC9130E020E043E061E0199580E098EA8F
:1020C000A92E91E0B92EF501C491811110C081E0D3
:1020D000CF3F49F04C2FB801C7010E94F70E88236B
:1020E00009F4BDCF80E0BFEFAB1ABB0AECCF4FEFD6
:1020F000CF3F89F3CE3F09F4B2CFC03F98F7C03E3F
:1021000038F04C2F4F70B801C7010E94FF0EEACF84
:10211000C03D38F04C2F4F70B801C7010E94070F27
:10212000E1CFC03CF8F0D8011496ED91FC9130E07D
:1021300020E040E064E0C7011995C295C07FCE5F02
:10214000D0E0CE010E944D0DD8011496ED91FC9186
:1021500030E020E041E064E0C7011995CE010E9423
:102160004D0DC0CFC7FDBECF8C2F90E0F8CFFB0147
:10217000A280B38040E0C7010E94FF0E41E0B80199
:10218000C7010E94070FD5011296CC91129716969F
:10219000AD90BC90D0E2DC0F40E0B801C7010E94D6
:1021A000FF0E4EE3B801C7010E94F70EC03228F5BA
:1021B0004C2F4068B801C7010E94F70E40E8B801F3
:1021C000C7010E94F70E41E0B801C7010E94FF0E4F
:1021D000D8011496ED91FC91950140E166E0C701AC
:1021E0001995B0E1AB0EB11CCF5FCD13D5CF40E058
:1021F000B801C7010E94070F32CF40EE4C0F406874
:10220000B801C7010E94F70E48E8D9CFA6E49A1694
:1022100009F479C0B7E49B1609F479C0EBE39E1288
:1022200024C0D60111969C91119713968C9138E099
:10223000390F813031F0833011F0392F02C0392F3E
:10224000985021E04B81491708F420E041E039170C
:1022500008F040E091E05A81351708F490E0322F01
:10226000342B932379F4242369F481E0DF91CF9117
:102270001F910F91FF90EF90DF90CF90BF90AF90A4
:102280009F900895F601128100E0F12C843048F40B
:1022900090E0FC01EF5DFD4FF080835E9D4FDC011F
:1022A0000C9117FF04C0B601CE010E94450FF60144
:1022B00080818F0D80838181800F8183110F89F749
:1022C000D4CFB601CE010E94450FCFCFCE010E94E0
:1022D000300D882359F2EE81FF818D81A4E08A9F21
:1022E000C00111248E0F9F1F11928E179F07E1F7D7
:1022F000BCCFF60110828A8181838D8181508283D7
:102300008B818383B2CF8D81D6018C93AECF8981AF
:10231000F6018083AACFAF92BF92CF92DF92EF9265
:10232000FF920F931F93CF93DF93C82EB92E809106
:102330001E08811105C081E080931E080E945F0F76
:10234000C091E707D091E807E0911608F0911708CF
:1023500082E01995E0911608F091170881E019952F
:1023600030E020E044E1BE0185EE97E00E945B0F83
:1023700028E138E047E1BE0185EE97E00E945B0F5F
:10238000E0911608F091170880E01995DD24D394A8
:1023900082E0A82ED09205080E94E80F109205084E
:1023A00080911908803440F58091180887FD24C079
:1023B000CC2DDB2D00E07E0117E0F70184916091C8
:1023C000E7077091E8071093010800930208A092B4
:1023D00004088093030821E038E04BE385EE97E0A2
:1023E0000E945B0FFFEFEF1AFF0A185F173829F7FB
:1023F00060960F5F0034F9F6E091F307F091F4076F
:10240000309719F085EE97E019950091E707109144
:10241000E807E0911608F091170882E01995E0911D
:102420001608F091170881E0199530E020E045E1A9
:10243000B80185EE97E00E945B0FC82F882341F01A
:1024400028E138E047E1B80185EE97E00E945B0F94
:10245000E0911608F091170880E01995C1119ACF04
:1024600064E670E080E090E0DF91CF911F910F91E2
:10247000FF90EF90DF90CF90BF90AF900C94B80892
:1024800086EB94E00E94DE0A892B49F086EB94E00B
:102490000E94BC0A80930C0281E08093AC0483E527
:1024A00095E00E94DE0A892B59F083E595E00E94B1
:1024B000BC0A80930B02882319F081E08093AB045F
:1024C00008953F924F925F926F927F928F929F9268
:1024D000AF92BF92CF92DF92EF92FF920F931F9332
:1024E000CF93DF93EC01B62EFCAC9BAC6C0124E0E7
:1024F000C20ED11CE98DFA8DC6011995882E08856A
:102500001985C8010E94FA0FE82E888599850E94D6
:10251000FD0F682E81E077247A94E81202C02FE044
:10252000722E888599850E94F60FE82E88859985F8
:102530000E94F20FA82E888599850E941310E0E66C
:10254000EB1578F4009769F0080F191F91E6E92E52
:10255000AB14C0F41C8A1F8A188E1D8A1E8A80E064
:10256000A2C0888599850E941610F0E4FB1538F406
:10257000009729F0080F191F81E4E82EE9CF0F5EBC
:102580001F4FE6CFAE1430F3862D90E0F801249172
:102590002F3F31F40F5F1F4FAE14E1F2E394F6CFFB
:1025A000BE1074C0888599850E94FA0F98012F5F2C
:1025B0003F4FF801882319F0823009F050C0849110
:1025C0008F8BF9012491288FF8013396E491EC8BDD
:1025D000F8013496E491ED8BF8013596E491EE8B99
:1025E0000115110509F4BBCF888599850E94FD0F5F
:1025F000388D7F2C731A9E89791A780C9FEF930F70
:10260000970D28AD4AAD471508F449C0921718F444
:10261000971508F047C02F896D88690C9FEF920FBE
:10262000960D4FA959AD561508F454C0941718F4D7
:10263000961508F037C0080F111D295F522E5694C9
:1026400056945694432E470C5E01F0E2AF0EB11C37
:10265000852C912C741431F1362C780151C0849161
:10266000982F9F7092509E8B82958F708D8BF90161
:102670002491822F8F70888F22952F702F8BF801D5
:102680003296E491E295EF70EC8BAACF3296E4910A
:10269000E721E80FF92FF11D0E0F1F1F7DCF9217B5
:1026A00008F0B6CF8C899BAD890F8BAF81E090E0AD
:1026B000DF91CF911F910F91FF90EF90DF90CF901E
:1026C000BF90AF909F908F907F906F905F904F9052
:1026D0003F900895941708F0ABCFE4CFF7018491B1
:1026E0006E817F8138A279A21BA28AA395014BE358
:1026F000C6010E945B0FFFEFEF1AFF0A28E0320EBF
:102700008E2D801B851550F3080D191D7394A2CFD3
:10271000089590E080E00895CF93DF93D82FC8E02C
:102720006D2F661F6627661F84E10E940708DD0F74
:1027300061E085E10E94070860E085E10E940708EA
:10274000C15071F7DF91CF9108950F931F93CF93ED
:102750008091A9049091AA0481309105F9F034F494
:10276000892BE1F1CF911F910F910895823091054E
:1027700009F44BC00397B1F760E086E10E940708B7
:10278000C0910A028C2F0E948C1361E086E10E94A6
:10279000070885E5CA3AB1F18AEA34C060E086E10B
:1027A0000E940708C0910A028C2F0E948C1361E0DE
:1027B00086E10E94070860E086E10E9407088C2FEE
:1027C0000E948C1361E086E10E94070884E0CC231C
:1027D000C9F08C2F90E09595879514C060E086E154
:1027E0000E940708C0910A028C2F0E948C1361E09E
:1027F00086E10E940708CF3720F4CC0FC0930A026D
:10280000B1CF81E080930A02ADCF05E010E060E037
:1028100086E10E940708C0910A028C2F0E948C1347
:1028200061E086E10E9407080150110981F7CECFCF
:10283000CF93C82F0E94E80760E08C2FCF910C94B3
:102840000708FB0101900020E9F73197AF01461B13
:10285000570B0C94670A0F931F93CF93DF938C0150
:10286000D0E0C0E0F801EC0FFD1F6491662341F059
:102870008DE896E00E94340B892B11F02196F2CF5F
:1028800063E472E08DE896E00E9421148C0F9D1F96
:10289000DF91CF911F910F910895CF93DF93682F10
:1028A0008DE896E00E94340BEC0163E472E08DE861
:1028B00096E00E9421148C0F9D1FDF91CF91089507
:1028C0000F931F93CF93DF93EC010E9421148C018F
:1028D00063E472E0CE010E942114800F911FDF910A
:1028E000CF911F910F9108951F920F920FB60F92E3
:1028F00011242F933F938F939F93AF93BF93809116
:10290000B2049091B304A091B404B091B504309195
:10291000AD0423E0230F2D3758F50196A11DB11DFD
:102920002093AD048093B2049093B304A093B404B5
:10293000B093B5048091AE049091AF04A091B0041F
:10294000B091B1040196A11DB11D8093AE04909386
:10295000AF04A093B004B093B104BF91AF919F9125
:102960008F913F912F910F900FBE0F901F90189550
:1029700026E8230F0296A11DB11DD2CF1F920F9200
:102980000FB60F9211240BB60F922F933F934F93D4
:102990005F936F937F938F939F93AF93BF93EF93C7
:1029A000FF9386EB94E00E94120BFF91EF91BF9191
:1029B000AF919F918F917F916F915F914F913F91D7
:1029C0002F910F900BBE0F900FBE0F901F90189578
:1029D0001F920F920FB60F9211240BB60F922F93E6
:1029E0003F934F935F936F937F938F939F93AF9397
:1029F000BF93EF93FF9386EB94E00E94940AFF91BC
:102A0000EF91BF91AF919F918F917F916F915F9166
:102A10004F913F912F910F900BBE0F900FBE0F90D3
:102A20001F9018951F920F920FB60F9211240BB69C
:102A30000F922F933F934F935F936F937F938F9357
:102A40009F93AF93BF93EF93FF9383E595E00E942D
:102A5000120BFF91EF91BF91AF919F918F917F9159
:102A60006F915F914F913F912F910F900BBE0F90FF
:102A70000FBE0F901F9018951F920F920FB60F92D6
:102A800011240BB60F922F933F934F935F936F9345
:102A90007F938F939F93AF93BF93EF93FF9383E5C0
:102AA00095E00E94940AFF91EF91BF91AF919F91A1
:102AB0008F917F916F915F914F913F912F910F90E7
:102AC0000BBE0F900FBE0F901F9018951F920F9284
:102AD0000FB60F9211240BB60F922F933F934F9383
:102AE0005F936F937F938F939F93AF93BF93EF9376
:102AF000FF9380EF95E00E94120BFF91EF91BF9141
:102B0000AF919F918F917F916F915F914F913F9185
:102B10002F910F900BBE0F900FBE0F901F90189526
:102B20001F920F920FB60F9211240BB60F922F9394
:102B30003F934F935F936F937F938F939F93AF9345
:102B4000BF93EF93FF9380EF95E00E94940AFF916B
:102B5000EF91BF91AF919F918F917F916F915F9115
:102B60004F913F912F910F900BBE0F900FBE0F9082
:102B70001F9018951F920F920FB60F9211240BB64B
:102B80000F922F933F934F935F936F937F938F9306
:102B90009F93AF93BF93EF93FF938DE896E00E94CE
:102BA000120BFF91EF91BF91AF919F918F917F9108
:102BB0006F915F914F913F912F910F900BBE0F90AE
:102BC0000FBE0F901F9018951F920F920FB60F9285
:102BD00011240BB60F922F933F934F935F936F93F4
:102BE0007F938F939F93AF93BF93EF93FF938DE862
:102BF00096E00E94940AFF91EF91BF91AF919F914F
:102C00008F917F916F915F914F913F912F910F9095
:102C10000BBE0F900FBE0F901F9018951F920F9232
:102C20000FB60F9211240BB60F922F933F934F9331
:102C30005F936F937F938F939F93AF93BF93EF9324
:102C4000FF93F0E0E0E01995FF91EF91BF91AF9114
:102C50009F918F917F916F915F914F913F912F91B4
:102C60000F900BBE0F900FBE0F901F9018951F92E4
:102C70000F920FB60F9211240BB60F922F933F9322
:102C80004F935F936F937F938F939F93AF93BF9374
:102C9000EF93FF93E0910802F09109021995FF91DB
:102CA000EF91BF91AF919F918F917F916F915F91C4
:102CB0004F913F912F910F900BBE0F900FBE0F9031
:102CC0001F9018951F920F920FB60F9211240BB6FA
:102CD0000F922F933F934F935F936F937F938F93B5
:102CE0009F93AF93BF93EF93FF9348E251E064E269
:102CF00071E090E080E00E946C0CFF91EF91BF9139
:102D0000AF919F918F917F916F915F914F913F9183
:102D10002F910F900BBE0F900FBE0F901F90189524
:102D20001F920F920FB60F9211240BB60F922F9392
:102D30003F934F935F936F937F938F939F93AF9343
:102D4000BF93EF93FF9348EA50E064EA70E083E0BA
:102D500090E00E946C0CFF91EF91BF91AF919F9119
:102D60008F917F916F915F914F913F912F910F9034
:102D70000BBE0F900FBE0F901F9018951F920F92D1
:102D80000FB60F9211240BB60F922F933F934F93D0
:102D90005F936F937F938F939F93AF93BF93EF93C3
:102DA000FF9348E950E064E970E082E090E00E941F
:102DB0006C0CFF91EF91BF91AF919F918F917F919B
:102DC0006F915F914F913F912F910F900BBE0F909C
:102DD0000FBE0F901F9018951F920F920FB60F9273
:102DE00011240BB60F922F933F934F935F936F93E2
:102DF0007F938F939F93AF93BF93EF93FF9348E895
:102E000050E064E870E081E090E00E946C0CFF917B
:102E1000EF91BF91AF919F918F917F916F915F9152
:102E20004F913F912F910F900BBE0F900FBE0F90BF
:102E30001F9018951F920F920FB60F9211240BB688
:102E40000F922F933F934F935F936F937F938F9343
:102E50009F93AF93BF93EF93FF93E091A704F091FB
:102E6000A8041995FF91EF91BF91AF919F918F9118
:102E70007F916F915F914F913F912F910F900BBE7A
:102E80000F900FBE0F901F901895CF93DF93109265
:102E9000B9041092B80448EE53E060E070E040934B
:102EA000BA045093BB046093BC047093BD0489E2E0
:102EB00092E09093B7048093B60425E331E0309319
:102EC000C3042093C20424E331E03093C50420936B
:102ED000C40420E331E03093C7042093C60421E307
:102EE00031E03093C9042093C80422E331E03093E9
:102EF000CB042093CA0426E331E03093CD04209321
:102F0000CC041092CF041092D0041092D1041092ED
:102F1000D2041092560510925505409357055093D0
:102F200058056093590570935A0590935405809302
:102F3000530525ED30E03093600520935F0524EDC7
:102F400030E0309362052093610520ED30E030934E
:102F500064052093630521ED30E0309366052093EE
:102F6000650522ED30E0309368052093670526ED76
:102F700030E030936A052093690510926C05109239
:102F80006D0510926E0510926F051092F305109268
:102F9000F2054093F4055093F5056093F6057093A0
:102FA000F7059093F1058093F0052DEC30E0309318
:102FB000FD052093FC052CEC30E03093FF052093B9
:102FC000FE0528EC30E0309301062093000629EC42
:102FD00030E030930306209302062AEC30E0309371
:102FE0000506209304062EEC30E03093070620936C
:102FF00006061092090610920A0610920B0610920D
:103000000C061092900610928F06409391065093F2
:103010009206609393067093940690938E06809325
:103020008D0685EC90E090939A068093990684EC47
:1030300090E090939C0680939B0680EC90E09093A8
:103040009E0680939D0681EC90E09093A00680936D
:103050009F0682EC90E09093A2068093A10686ECF6
:1030600090E09093A4068093A3061092A606109277
:10307000A7061092A8061092A9068091BA0780337D
:1030800008F0C4C091E0980F9093BA07809322088B
:1030900090E0FC01EE0FFF1FE80FF91FE65DF84F0F
:1030A00088EB9BE0928381838091BA07803308F09C
:1030B000B1C091E0980F9093BA0780931F0890E0F9
:1030C000FC01EE0FFF1FE80FF91FE65DF84F88EBDC
:1030D0009BE0928381831092E4071092E3078BE3D5
:1030E00092E09093E2078093E10710921C081092FF
:1030F0001D0810921E081092EA071092E90710921C
:10310000EC071092EB071092EE0781E08093ED0739
:1031100082E28093EF071092F4071092F307E8E041
:10312000F8E026E138E08FEF81932E173F07E1F7B3
:1031300091E0909305082FEB37E03093FB07209345
:10314000FA079093FC071092FD071092FE0790E497
:103150009093FF07109200082EEB37E0309317088A
:10316000209316082DE032E03093E8072093E7071C
:1031700095E090930D0896E090930E0897E0909359
:103180000F0898E09093100899E090931108CAE016
:10319000C093120898E19093130899E19093140852
:1031A00094E090930C0880930A0880930B08D2E077
:1031B000D093090893E090931508809308080E9423
:1031C0005F0F8BE392E09093E2078093E10784EF37
:1031D00091E0A0E0B0E08093C1079093C207A09374
:1031E000C307B093C407E3E1F2E0AFECB7E00190AE
:1031F0000D92CA95E1F71092D907D093DA07109291
:10320000DF071092E007DF91CF9108958FEF809351
:1032100022084ACF8FEF80931F085DCF789484B542
:10322000826084BD84B5816084BD85B5826085BDC2
:1032300085B5816085BD80916E00816080936E0050
:103240001092810080918100826080938100809142
:1032500081008160809381008091800081608093F3
:1032600080008091B10084608093B1008091B000B3
:1032700081608093B0008091910082608093910082
:103280008091910081608093910080919000816095
:10329000809390008091A10082608093A100809132
:1032A000A10081608093A1008091A0008160809343
:1032B000A0008091210182608093210180912101F1
:1032C00081608093210180912001816080932001A1
:1032D00080917A00846080937A0080917A00826085
:1032E00080937A0080917A00816080937A00809147
:1032F0007A00806880937A001092C1008DE896E091
:103300000E94C10780EF95E00E94C10780EF95E021
:103310009093BC078093BB0781E08093D30770E054
:1033200060E08CE00E94FF098FB7F894C090B2046F
:10333000D090B304E090B404F090B5048FBF0E9425
:10334000EB0881111AC02FB7F8948091B2049091C4
:10335000B304A091B404B091B5042FBF8C199D099A
:10336000AE09BF09813D9740A105B10530F460E089
:1033700070E0CB010E94B808E2CF68EC70E080E01A
:1033800090E00E94B8081092DF078091DB0784303C
:1033900079F0893069F08DEF91E00E942B148CED6B
:1033A00091E00E942B148FEB91E00E942B14FFCF31
:1033B00066E472E08DE896E00E94601465E070E0DB
:1033C00087E00E94FF098FE00E94620AC8E0D0E017
:1033D00060E086E10E94070880E00E948C1361E0B3
:1033E00086E10E940708219799F700E10093910078
:1033F000109290008CE792E990939700809396004A
:1034000083E1809391001092710021E030E03093CD
:10341000AA042093A90410E5E12E13ECF12EF092FA
:103420009700E09296008093910084E080930A02D6
:1034300085EA93E19093A8048093A70411E0109388
:10344000710086EB94E00E94C10700938100109206
:103450008000F0928700E092860082E180938100F4
:1034600080E492E1909309028093080210936F0028
:1034700080912208803308F042C08BE00E94E80768
:1034800080912208282F30E0F901EE0FFF1FE20F94
:10349000F31FE65DF84F9081907C9B6090831092C3
:1034A0002308109224082CE0622F0E94681C90E0F0
:1034B000829FB001112430E020E0AB01420F531F86
:1034C000FA01EE0FFF1FE40FF51FE65DF84F408194
:1034D00046FD07C02F5F3F4F2C30310571F70E942A
:1034E0002A0CE09122088E2F90E0FC01EE0FFF1FC6
:1034F000E80FF91FE65DF84F80818064808380913A
:103500001F08803308F03FC08CE00E94E8078091DC
:103510001F08282F30E0F901EE0FFF1FE20FF31F05
:10352000E65DF84F9081907C9C609083109220081B
:10353000109221082CE0622F0E94681C90E0829F6C
:10354000B00111249B012C0F3D1FF901EE0FFF1F4D
:10355000E20FF31FE65DF84F208126FD06C021969D
:10356000CC30D10579F70E942A0CE0911F088E2FEC
:1035700090E0FC01EE0FFF1FE80FF91FE65DF84F2A
:103580008081806480836AE570E082E298E00E9436
:10359000C70B6AE570E08FE198E00E94C70B8EE0F0
:1035A0009AE00E948B1183E595E00E94C10784E6B2
:1035B00090E0A0E0B0E08093570590935805A09369
:1035C0005905B0935A0580E18093A1001092A000A4
:1035D00080E593EC9093A7008093A60083E180930D
:1035E000A10086E20E94E80787E20E94E80788E2DD
:1035F0000E94E80789E20E94E80786E20E94181408
:1036000087E20E94181488E20E94181489E20E943E
:10361000181484E10E94E80786E10E94E80785E12A
:103620000E94E8076CE572E08DE896E00E94601465
:1036300080E5C82E83ECD82ED3E194E0B92E05EABC
:1036400013E1C1E028EAE22E21E6F22E3AEAA32EA7
:103650008091AC048823F9F06CE672E08DE896E086
:103660000E94211480910C020E944D1480910C0242
:10367000823609F4B0C00CF04AC0833309F4A3C009
:103680003CF5813309F49BC00CF09BC0803309F4F6
:1036900092C01092AC048091AB04882309F4AFC0AF
:1036A00061E772E08DE896E00E94211480910B02A0
:1036B0000E944D1480910B02873609F4A3C08F3607
:1036C00009F495C0823609F098C064E872E091C0B0
:1036D000853309F47CC00CF478C0863309F479C0D2
:1036E0008136B9F6109271001092AA041092A904C2
:1036F000F0929700E0929600D0939100C0930A0256
:103700001093A8040093A704C0937100C2CF81371F
:1037100009F447C024F5893609F466C0A4F4843658
:1037200009F0B7CF1092710082E090E09093AA0464
:103730008093A904F0929700E0929600D0939100B4
:10374000A0920A02DDCF8D3609F448C062E070E035
:103750008E3609F09ECF83E00E94FF099ACF85370D
:1037600009F43FC0A4F4833709F093CF109271009D
:1037700081E090E09093AA048093A904D0929700EE
:10378000C0929600D0939100B0920A02B9CF8737C9
:1037900079F0893709F07DCF8EE09AE00E948B1195
:1037A00078CF6BE470E082E298E00E94C70B71CFA3
:1037B0006AE570E0F8CF80E00E94620A6ACF85E097
:1037C000FBCF8AE0F9CF8FE0F7CF84E1F5CF89E135
:1037D000F3CF8EE1F1CF61E070E0BDCF63E070E048
:1037E000BACF8EE096E0DACF8EE092E0D7CF67E7EF
:1037F00072E086EB94E00E9460141092AB040E9489
:10380000A10B26CF6EE772E0F4CF052E97FB1EF4D6
:1038100000940E941C1C57FD07D00E94371C07FC17
:1038200003D04EF40C941C1C509540953095219576
:103830003F4F4F4F5F4F08959095809570956195DC
:103840007F4F8F4F9F4F08950E94591CA59F900D49
:10385000B49F900DA49F800D911D11240895B7FF72
:103860000C94241C0E94241C821B930B0895A1E23B
:103870001A2EAA1BBB1BFD010DC0AA1FBB1FEE1FEA
:10388000FF1FA217B307E407F50720F0A21BB30B35
:10389000E40BF50B661F771F881F991F1A9469F7B1
:1038A00060957095809590959B01AC01BD01CF010D
:1038B0000895A29FB001B39FC001A39F700D811D09
:1038C0001124911DB29F700D811D1124911D089529
:1038D000991B79E004C0991F961708F0961B881F62
:1038E0007A95C9F780950895EE0FFF1F881F8BBF4B
:0C38F0000790F691E02D1994F894FFCF9A
:1038FC002040000000808A02C60B01202019100015
:10390C0002C10D7EFF06000100000000EF00010067
:10391C00FF0100FF0000000000340B670AAD0A81B4
:10392C000BDE0ABC0AD00A000000006112670A898B
:10393C001388130D0A004446506C61796572204D52
:10394C00696E69206F6E6C696E652E0046756C6CC5
:10395C0020696E697420646F6E652E0062743A2063
:10396C00007270693A20004F52414E474500475251
:0A397C0045454E00424C5545000041
:00000001FF
